{
	"MyToken,sol.sol": {
		"MyToken": {
			"abi": [
				{
					"inputs": [
						{
							"internalType": "address",
							"name": "",
							"type": "address"
						}
					],
					"name": "balances",
					"outputs": [
						{
							"internalType": "uint256",
							"name": "",
							"type": "uint256"
						}
					],
					"stateMutability": "view",
					"type": "function"
				},
				{
					"inputs": [
						{
							"internalType": "address",
							"name": "_address",
							"type": "address"
						},
						{
							"internalType": "uint256",
							"name": "_value",
							"type": "uint256"
						}
					],
					"name": "burn",
					"outputs": [],
					"stateMutability": "nonpayable",
					"type": "function"
				},
				{
					"inputs": [
						{
							"internalType": "address",
							"name": "_address",
							"type": "address"
						},
						{
							"internalType": "uint256",
							"name": "_value",
							"type": "uint256"
						}
					],
					"name": "mint",
					"outputs": [],
					"stateMutability": "nonpayable",
					"type": "function"
				},
				{
					"inputs": [],
					"name": "tokenAbbrv",
					"outputs": [
						{
							"internalType": "string",
							"name": "",
							"type": "string"
						}
					],
					"stateMutability": "view",
					"type": "function"
				},
				{
					"inputs": [],
					"name": "tokenName",
					"outputs": [
						{
							"internalType": "string",
							"name": "",
							"type": "string"
						}
					],
					"stateMutability": "view",
					"type": "function"
				},
				{
					"inputs": [],
					"name": "totalSupply",
					"outputs": [
						{
							"internalType": "uint256",
							"name": "",
							"type": "uint256"
						}
					],
					"stateMutability": "view",
					"type": "function"
				}
			],
			"devdoc": {
				"kind": "dev",
				"methods": {},
				"version": 1
			},
			"evm": {
				"assembly": "    /* \"MyToken,sol.sol\":1072:1104  string public tokenName = \"SHUB\" */\n  0xc0\n    /* \"MyToken,sol.sol\":1016:1650  contract MyToken {... */\n  0x40\n    /* \"MyToken,sol.sol\":1072:1104  string public tokenName = \"SHUB\" */\n  mstore\n  0x04\n    /* \"MyToken,sol.sol\":1016:1650  contract MyToken {... */\n  0x80\n    /* \"MyToken,sol.sol\":1072:1104  string public tokenName = \"SHUB\" */\n  swap1\n  dup2\n  mstore\n  mstore(0xa0, shl(0xe1, 0x29a42aa1))\n  0x00\n  swap1\n  tag_1\n  swap1\n  dup3\n  tag_2\n  jump\t// in\ntag_1:\n  pop\n    /* \"MyToken,sol.sol\":1111:1143  string public tokenAbbrv = \"SUB\" */\n  0x40\n  dup1\n  mload\n  dup1\n  dup3\n  add\n  swap1\n  swap2\n  mstore\n  0x03\n  dup2\n  mstore\n  shl(0xe9, 0x29aaa1)\n  0x20\n  dup3\n  add\n  mstore\n  0x01\n  swap1\n  tag_3\n  swap1\n  dup3\n  tag_2\n  jump\t// in\ntag_3:\n  pop\n    /* \"MyToken,sol.sol\":1176:1177  0 */\n  0x00\n    /* \"MyToken,sol.sol\":1150:1177  uint public totalSupply = 0 */\n  0x02\n  sstore\n    /* \"MyToken,sol.sol\":1016:1650  contract MyToken {... */\n  callvalue\n  dup1\n  iszero\n  tag_4\n  jumpi\n  0x00\n  dup1\n  revert\ntag_4:\n  pop\n  jump(tag_11)\n    /* \"#utility.yul\":14:141   */\ntag_6:\n    /* \"#utility.yul\":75:85   */\n  0x4e487b71\n    /* \"#utility.yul\":70:73   */\n  0xe0\n    /* \"#utility.yul\":66:86   */\n  shl\n    /* \"#utility.yul\":63:64   */\n  0x00\n    /* \"#utility.yul\":56:87   */\n  mstore\n    /* \"#utility.yul\":106:110   */\n  0x41\n    /* \"#utility.yul\":103:104   */\n  0x04\n    /* \"#utility.yul\":96:111   */\n  mstore\n    /* \"#utility.yul\":130:134   */\n  0x24\n    /* \"#utility.yul\":127:128   */\n  0x00\n    /* \"#utility.yul\":120:135   */\n  revert\n    /* \"#utility.yul\":146:526   */\ntag_7:\n    /* \"#utility.yul\":225:226   */\n  0x01\n    /* \"#utility.yul\":221:233   */\n  dup2\n  dup2\n  shr\n  swap1\n    /* \"#utility.yul\":268:280   */\n  dup3\n  and\n  dup1\n    /* \"#utility.yul\":289:350   */\n  tag_14\n  jumpi\n    /* \"#utility.yul\":343:347   */\n  0x7f\n    /* \"#utility.yul\":335:341   */\n  dup3\n    /* \"#utility.yul\":331:348   */\n  and\n    /* \"#utility.yul\":321:348   */\n  swap2\n  pop\n    /* \"#utility.yul\":289:350   */\ntag_14:\n    /* \"#utility.yul\":396:398   */\n  0x20\n    /* \"#utility.yul\":388:394   */\n  dup3\n    /* \"#utility.yul\":385:399   */\n  lt\n    /* \"#utility.yul\":365:383   */\n  dup2\n    /* \"#utility.yul\":362:400   */\n  sub\n    /* \"#utility.yul\":359:520   */\n  tag_15\n  jumpi\n    /* \"#utility.yul\":442:452   */\n  0x4e487b71\n    /* \"#utility.yul\":437:440   */\n  0xe0\n    /* \"#utility.yul\":433:453   */\n  shl\n    /* \"#utility.yul\":430:431   */\n  0x00\n    /* \"#utility.yul\":423:454   */\n  mstore\n    /* \"#utility.yul\":477:481   */\n  0x22\n    /* \"#utility.yul\":474:475   */\n  0x04\n    /* \"#utility.yul\":467:482   */\n  mstore\n    /* \"#utility.yul\":505:509   */\n  0x24\n    /* \"#utility.yul\":502:503   */\n  0x00\n    /* \"#utility.yul\":495:510   */\n  revert\n    /* \"#utility.yul\":359:520   */\ntag_15:\n  pop\n    /* \"#utility.yul\":146:526   */\n  swap2\n  swap1\n  pop\n  jump\t// out\n    /* \"#utility.yul\":657:1202   */\ntag_9:\n    /* \"#utility.yul\":759:761   */\n  0x1f\n    /* \"#utility.yul\":754:757   */\n  dup3\n    /* \"#utility.yul\":751:762   */\n  gt\n    /* \"#utility.yul\":748:1196   */\n  iszero\n  tag_18\n  jumpi\n    /* \"#utility.yul\":795:796   */\n  0x00\n    /* \"#utility.yul\":820:825   */\n  dup2\n    /* \"#utility.yul\":816:818   */\n  dup2\n    /* \"#utility.yul\":809:826   */\n  mstore\n    /* \"#utility.yul\":865:869   */\n  0x20\n    /* \"#utility.yul\":861:863   */\n  dup2\n    /* \"#utility.yul\":851:870   */\n  keccak256\n    /* \"#utility.yul\":935:937   */\n  0x1f\n    /* \"#utility.yul\":923:933   */\n  dup6\n    /* \"#utility.yul\":919:938   */\n  add\n    /* \"#utility.yul\":916:917   */\n  0x05\n    /* \"#utility.yul\":912:939   */\n  shr\n    /* \"#utility.yul\":906:910   */\n  dup2\n    /* \"#utility.yul\":902:940   */\n  add\n    /* \"#utility.yul\":971:975   */\n  0x20\n    /* \"#utility.yul\":959:969   */\n  dup7\n    /* \"#utility.yul\":956:976   */\n  lt\n    /* \"#utility.yul\":953:1000   */\n  iszero\n  tag_19\n  jumpi\n  pop\n    /* \"#utility.yul\":994:998   */\n  dup1\n    /* \"#utility.yul\":953:1000   */\ntag_19:\n    /* \"#utility.yul\":1049:1051   */\n  0x1f\n    /* \"#utility.yul\":1044:1047   */\n  dup6\n    /* \"#utility.yul\":1040:1052   */\n  add\n    /* \"#utility.yul\":1037:1038   */\n  0x05\n    /* \"#utility.yul\":1033:1053   */\n  shr\n    /* \"#utility.yul\":1027:1031   */\n  dup3\n    /* \"#utility.yul\":1023:1054   */\n  add\n    /* \"#utility.yul\":1013:1054   */\n  swap2\n  pop\n    /* \"#utility.yul\":1104:1186   */\ntag_20:\n    /* \"#utility.yul\":1122:1124   */\n  dup2\n    /* \"#utility.yul\":1115:1120   */\n  dup2\n    /* \"#utility.yul\":1112:1125   */\n  lt\n    /* \"#utility.yul\":1104:1186   */\n  iszero\n  tag_22\n  jumpi\n    /* \"#utility.yul\":1167:1184   */\n  dup3\n  dup2\n  sstore\n    /* \"#utility.yul\":1148:1149   */\n  0x01\n    /* \"#utility.yul\":1137:1150   */\n  add\n    /* \"#utility.yul\":1104:1186   */\n  jump(tag_20)\ntag_22:\n    /* \"#utility.yul\":1108:1111   */\n  pop\n  pop\n  pop\n    /* \"#utility.yul\":748:1196   */\ntag_18:\n    /* \"#utility.yul\":657:1202   */\n  pop\n  pop\n  pop\n  jump\t// out\n    /* \"#utility.yul\":1378:2730   */\ntag_2:\n    /* \"#utility.yul\":1498:1508   */\n  dup2\n  mload\n  sub(shl(0x40, 0x01), 0x01)\n    /* \"#utility.yul\":1520:1550   */\n  dup2\n  gt\n    /* \"#utility.yul\":1517:1573   */\n  iszero\n  tag_26\n  jumpi\n    /* \"#utility.yul\":1553:1571   */\n  tag_26\n  tag_6\n  jump\t// in\ntag_26:\n    /* \"#utility.yul\":1582:1679   */\n  tag_27\n    /* \"#utility.yul\":1672:1678   */\n  dup2\n    /* \"#utility.yul\":1632:1670   */\n  tag_28\n    /* \"#utility.yul\":1664:1668   */\n  dup5\n    /* \"#utility.yul\":1658:1669   */\n  sload\n    /* \"#utility.yul\":1632:1670   */\n  tag_7\n  jump\t// in\ntag_28:\n    /* \"#utility.yul\":1626:1630   */\n  dup5\n    /* \"#utility.yul\":1582:1679   */\n  tag_9\n  jump\t// in\ntag_27:\n    /* \"#utility.yul\":1734:1738   */\n  0x20\n  dup1\n    /* \"#utility.yul\":1798:1800   */\n  0x1f\n    /* \"#utility.yul\":1787:1801   */\n  dup4\n  gt\n    /* \"#utility.yul\":1815:1816   */\n  0x01\n    /* \"#utility.yul\":1810:2473   */\n  dup2\n  eq\n  tag_30\n  jumpi\n    /* \"#utility.yul\":2517:2518   */\n  0x00\n    /* \"#utility.yul\":2534:2540   */\n  dup5\n    /* \"#utility.yul\":2531:2620   */\n  iszero\n  tag_31\n  jumpi\n  pop\n    /* \"#utility.yul\":2586:2605   */\n  dup6\n  dup4\n  add\n    /* \"#utility.yul\":2580:2606   */\n  mload\n    /* \"#utility.yul\":2531:2620   */\ntag_31:\n  not(0x00)\n    /* \"#utility.yul\":1335:1336   */\n  0x03\n    /* \"#utility.yul\":1331:1342   */\n  dup7\n  swap1\n  shl\n    /* \"#utility.yul\":1327:1351   */\n  shr\n    /* \"#utility.yul\":1323:1352   */\n  not\n    /* \"#utility.yul\":1313:1353   */\n  and\n    /* \"#utility.yul\":1359:1360   */\n  0x01\n    /* \"#utility.yul\":1355:1366   */\n  dup6\n  swap1\n  shl\n    /* \"#utility.yul\":1310:1367   */\n  or\n    /* \"#utility.yul\":2633:2714   */\n  dup6\n  sstore\n    /* \"#utility.yul\":1780:2724   */\n  jump(tag_22)\n    /* \"#utility.yul\":1810:2473   */\ntag_30:\n    /* \"#utility.yul\":604:605   */\n  0x00\n    /* \"#utility.yul\":597:611   */\n  dup6\n  dup2\n  mstore\n    /* \"#utility.yul\":641:645   */\n  0x20\n    /* \"#utility.yul\":628:646   */\n  dup2\n  keccak256\n  not(0x1f)\n    /* \"#utility.yul\":1846:1866   */\n  dup7\n  and\n  swap2\n    /* \"#utility.yul\":1964:2200   */\ntag_34:\n    /* \"#utility.yul\":1978:1985   */\n  dup3\n    /* \"#utility.yul\":1975:1976   */\n  dup2\n    /* \"#utility.yul\":1972:1986   */\n  lt\n    /* \"#utility.yul\":1964:2200   */\n  iszero\n  tag_36\n  jumpi\n    /* \"#utility.yul\":2067:2086   */\n  dup9\n  dup7\n  add\n    /* \"#utility.yul\":2061:2087   */\n  mload\n    /* \"#utility.yul\":2046:2088   */\n  dup3\n  sstore\n    /* \"#utility.yul\":2159:2186   */\n  swap5\n  dup5\n  add\n  swap5\n    /* \"#utility.yul\":2127:2128   */\n  0x01\n    /* \"#utility.yul\":2115:2129   */\n  swap1\n  swap2\n  add\n  swap1\n    /* \"#utility.yul\":1994:2013   */\n  dup5\n  add\n    /* \"#utility.yul\":1964:2200   */\n  jump(tag_34)\ntag_36:\n    /* \"#utility.yul\":1968:1971   */\n  pop\n    /* \"#utility.yul\":2228:2234   */\n  dup6\n    /* \"#utility.yul\":2219:2226   */\n  dup3\n    /* \"#utility.yul\":2216:2235   */\n  lt\n    /* \"#utility.yul\":2213:2414   */\n  iszero\n  tag_37\n  jumpi\n    /* \"#utility.yul\":2289:2308   */\n  dup8\n  dup6\n  add\n    /* \"#utility.yul\":2283:2309   */\n  mload\n  not(0x00)\n    /* \"#utility.yul\":2372:2373   */\n  0x03\n    /* \"#utility.yul\":2368:2382   */\n  dup9\n  swap1\n  shl\n    /* \"#utility.yul\":2384:2387   */\n  0xf8\n    /* \"#utility.yul\":2364:2388   */\n  and\n    /* \"#utility.yul\":2360:2397   */\n  shr\n    /* \"#utility.yul\":2356:2398   */\n  not\n    /* \"#utility.yul\":2341:2399   */\n  and\n    /* \"#utility.yul\":2326:2400   */\n  dup2\n  sstore\n    /* \"#utility.yul\":2213:2414   */\ntag_37:\n  pop\n  pop\n  pop\n  pop\n  pop\n    /* \"#utility.yul\":2460:2461   */\n  0x01\n    /* \"#utility.yul\":2444:2458   */\n  swap1\n  dup2\n  shl\n    /* \"#utility.yul\":2440:2462   */\n  add\n    /* \"#utility.yul\":2427:2463   */\n  swap1\n  sstore\n  pop\n    /* \"#utility.yul\":1378:2730   */\n  jump\t// out\ntag_11:\n    /* \"MyToken,sol.sol\":1016:1650  contract MyToken {... */\n  dataSize(sub_0)\n  dup1\n  dataOffset(sub_0)\n  0x00\n  codecopy\n  0x00\n  return\nstop\n\nsub_0: assembly {\n        /* \"MyToken,sol.sol\":1016:1650  contract MyToken {... */\n      mstore(0x40, 0x80)\n      callvalue\n      dup1\n      iszero\n      tag_1\n      jumpi\n      0x00\n      dup1\n      revert\n    tag_1:\n      pop\n      jumpi(tag_2, lt(calldatasize, 0x04))\n      shr(0xe0, calldataload(0x00))\n      dup1\n      0x18160ddd\n      eq\n      tag_3\n      jumpi\n      dup1\n      0x27e235e3\n      eq\n      tag_4\n      jumpi\n      dup1\n      0x40c10f19\n      eq\n      tag_5\n      jumpi\n      dup1\n      0x6c02a931\n      eq\n      tag_6\n      jumpi\n      dup1\n      0x7a8ff07d\n      eq\n      tag_7\n      jumpi\n      dup1\n      0x9dc29fac\n      eq\n      tag_8\n      jumpi\n    tag_2:\n      0x00\n      dup1\n      revert\n        /* \"MyToken,sol.sol\":1150:1177  uint public totalSupply = 0 */\n    tag_3:\n      tag_9\n      sload(0x02)\n      dup2\n      jump\n    tag_9:\n      mload(0x40)\n        /* \"#utility.yul\":160:185   */\n      swap1\n      dup2\n      mstore\n        /* \"#utility.yul\":148:150   */\n      0x20\n        /* \"#utility.yul\":133:151   */\n      add\n        /* \"MyToken,sol.sol\":1150:1177  uint public totalSupply = 0 */\n    tag_11:\n      mload(0x40)\n      dup1\n      swap2\n      sub\n      swap1\n      return\n        /* \"MyToken,sol.sol\":1216:1256  mapping(address => uint) public balances */\n    tag_4:\n      tag_9\n      tag_14\n      calldatasize\n      0x04\n      tag_15\n      jump\t// in\n    tag_14:\n      mstore(0x20, 0x03)\n      0x00\n      swap1\n      dup2\n      mstore\n      0x40\n      swap1\n      keccak256\n      sload\n      dup2\n      jump\n        /* \"MyToken,sol.sol\":1287:1419  function mint (address _address, uint _value) public {... */\n    tag_5:\n      tag_18\n      tag_19\n      calldatasize\n      0x04\n      tag_20\n      jump\t// in\n    tag_19:\n      tag_21\n      jump\t// in\n    tag_18:\n      stop\n        /* \"MyToken,sol.sol\":1072:1104  string public tokenName = \"SHUB\" */\n    tag_6:\n      tag_22\n      tag_23\n      jump\t// in\n    tag_22:\n      mload(0x40)\n      tag_11\n      swap2\n      swap1\n      tag_25\n      jump\t// in\n        /* \"MyToken,sol.sol\":1111:1143  string public tokenAbbrv = \"SUB\" */\n    tag_7:\n      tag_22\n      tag_27\n      jump\t// in\n        /* \"MyToken,sol.sol\":1449:1645  function burn (address _address, uint _value) public {... */\n    tag_8:\n      tag_18\n      tag_30\n      calldatasize\n      0x04\n      tag_20\n      jump\t// in\n    tag_30:\n      tag_31\n      jump\t// in\n        /* \"MyToken,sol.sol\":1287:1419  function mint (address _address, uint _value) public {... */\n    tag_21:\n        /* \"MyToken,sol.sol\":1366:1372  _value */\n      dup1\n        /* \"MyToken,sol.sol\":1351:1362  totalSupply */\n      0x02\n      0x00\n        /* \"MyToken,sol.sol\":1351:1372  totalSupply += _value */\n      dup3\n      dup3\n      sload\n      tag_33\n      swap2\n      swap1\n      tag_34\n      jump\t// in\n    tag_33:\n      swap1\n      swap2\n      sstore\n      pop\n      pop\n      sub(shl(0xa0, 0x01), 0x01)\n        /* \"MyToken,sol.sol\":1383:1401  balances[_address] */\n      dup3\n      and\n      0x00\n      swap1\n      dup2\n      mstore\n        /* \"MyToken,sol.sol\":1383:1391  balances */\n      0x03\n        /* \"MyToken,sol.sol\":1383:1401  balances[_address] */\n      0x20\n      mstore\n      0x40\n      dup2\n      keccak256\n        /* \"MyToken,sol.sol\":1383:1411  balances[_address] += _value */\n      dup1\n      sload\n        /* \"MyToken,sol.sol\":1405:1411  _value */\n      dup4\n      swap3\n        /* \"MyToken,sol.sol\":1383:1401  balances[_address] */\n      swap1\n        /* \"MyToken,sol.sol\":1383:1411  balances[_address] += _value */\n      tag_35\n      swap1\n        /* \"MyToken,sol.sol\":1405:1411  _value */\n      dup5\n      swap1\n        /* \"MyToken,sol.sol\":1383:1411  balances[_address] += _value */\n      tag_34\n      jump\t// in\n    tag_35:\n      swap1\n      swap2\n      sstore\n      pop\n      pop\n      pop\n      pop\n        /* \"MyToken,sol.sol\":1287:1419  function mint (address _address, uint _value) public {... */\n      jump\t// out\n        /* \"MyToken,sol.sol\":1072:1104  string public tokenName = \"SHUB\" */\n    tag_23:\n      0x00\n      dup1\n      sload\n      tag_36\n      swap1\n      tag_37\n      jump\t// in\n    tag_36:\n      dup1\n      0x1f\n      add\n      0x20\n      dup1\n      swap2\n      div\n      mul\n      0x20\n      add\n      mload(0x40)\n      swap1\n      dup2\n      add\n      0x40\n      mstore\n      dup1\n      swap3\n      swap2\n      swap1\n      dup2\n      dup2\n      mstore\n      0x20\n      add\n      dup3\n      dup1\n      sload\n      tag_38\n      swap1\n      tag_37\n      jump\t// in\n    tag_38:\n      dup1\n      iszero\n      tag_39\n      jumpi\n      dup1\n      0x1f\n      lt\n      tag_40\n      jumpi\n      0x0100\n      dup1\n      dup4\n      sload\n      div\n      mul\n      dup4\n      mstore\n      swap2\n      0x20\n      add\n      swap2\n      jump(tag_39)\n    tag_40:\n      dup3\n      add\n      swap2\n      swap1\n      0x00\n      mstore\n      keccak256(0x00, 0x20)\n      swap1\n    tag_41:\n      dup2\n      sload\n      dup2\n      mstore\n      swap1\n      0x01\n      add\n      swap1\n      0x20\n      add\n      dup1\n      dup4\n      gt\n      tag_41\n      jumpi\n      dup3\n      swap1\n      sub\n      0x1f\n      and\n      dup3\n      add\n      swap2\n    tag_39:\n      pop\n      pop\n      pop\n      pop\n      pop\n      dup2\n      jump\t// out\n        /* \"MyToken,sol.sol\":1111:1143  string public tokenAbbrv = \"SUB\" */\n    tag_27:\n      0x01\n      dup1\n      sload\n      tag_36\n      swap1\n      tag_37\n      jump\t// in\n        /* \"MyToken,sol.sol\":1449:1645  function burn (address _address, uint _value) public {... */\n    tag_31:\n      sub(shl(0xa0, 0x01), 0x01)\n        /* \"MyToken,sol.sol\":1517:1535  balances[_address] */\n      dup3\n      and\n      0x00\n      swap1\n      dup2\n      mstore\n        /* \"MyToken,sol.sol\":1517:1525  balances */\n      0x03\n        /* \"MyToken,sol.sol\":1517:1535  balances[_address] */\n      0x20\n      mstore\n      0x40\n      swap1\n      keccak256\n      sload\n        /* \"MyToken,sol.sol\":1517:1545  balances[_address] >= _value */\n      dup2\n      gt\n        /* \"MyToken,sol.sol\":1513:1638  if (balances[_address] >= _value) {... */\n      tag_48\n      jumpi\n        /* \"MyToken,sol.sol\":1577:1583  _value */\n      dup1\n        /* \"MyToken,sol.sol\":1562:1573  totalSupply */\n      0x02\n      0x00\n        /* \"MyToken,sol.sol\":1562:1583  totalSupply -= _value */\n      dup3\n      dup3\n      sload\n      tag_49\n      swap2\n      swap1\n      tag_50\n      jump\t// in\n    tag_49:\n      swap1\n      swap2\n      sstore\n      pop\n      pop\n      sub(shl(0xa0, 0x01), 0x01)\n        /* \"MyToken,sol.sol\":1598:1616  balances[_address] */\n      dup3\n      and\n      0x00\n      swap1\n      dup2\n      mstore\n        /* \"MyToken,sol.sol\":1598:1606  balances */\n      0x03\n        /* \"MyToken,sol.sol\":1598:1616  balances[_address] */\n      0x20\n      mstore\n      0x40\n      dup2\n      keccak256\n        /* \"MyToken,sol.sol\":1598:1626  balances[_address] -= _value */\n      dup1\n      sload\n        /* \"MyToken,sol.sol\":1620:1626  _value */\n      dup4\n      swap3\n        /* \"MyToken,sol.sol\":1598:1616  balances[_address] */\n      swap1\n        /* \"MyToken,sol.sol\":1598:1626  balances[_address] -= _value */\n      tag_35\n      swap1\n        /* \"MyToken,sol.sol\":1620:1626  _value */\n      dup5\n      swap1\n        /* \"MyToken,sol.sol\":1598:1626  balances[_address] -= _value */\n      tag_50\n      jump\t// in\n        /* \"MyToken,sol.sol\":1513:1638  if (balances[_address] >= _value) {... */\n    tag_48:\n        /* \"MyToken,sol.sol\":1449:1645  function burn (address _address, uint _value) public {... */\n      pop\n      pop\n      jump\t// out\n        /* \"#utility.yul\":196:369   */\n    tag_52:\n        /* \"#utility.yul\":264:284   */\n      dup1\n      calldataload\n      sub(shl(0xa0, 0x01), 0x01)\n        /* \"#utility.yul\":313:344   */\n      dup2\n      and\n        /* \"#utility.yul\":303:345   */\n      dup2\n      eq\n        /* \"#utility.yul\":293:363   */\n      tag_57\n      jumpi\n        /* \"#utility.yul\":359:360   */\n      0x00\n        /* \"#utility.yul\":356:357   */\n      dup1\n        /* \"#utility.yul\":349:361   */\n      revert\n        /* \"#utility.yul\":293:363   */\n    tag_57:\n        /* \"#utility.yul\":196:369   */\n      swap2\n      swap1\n      pop\n      jump\t// out\n        /* \"#utility.yul\":374:560   */\n    tag_15:\n        /* \"#utility.yul\":433:439   */\n      0x00\n        /* \"#utility.yul\":486:488   */\n      0x20\n        /* \"#utility.yul\":474:483   */\n      dup3\n        /* \"#utility.yul\":465:472   */\n      dup5\n        /* \"#utility.yul\":461:484   */\n      sub\n        /* \"#utility.yul\":457:489   */\n      slt\n        /* \"#utility.yul\":454:506   */\n      iszero\n      tag_59\n      jumpi\n        /* \"#utility.yul\":502:503   */\n      0x00\n        /* \"#utility.yul\":499:500   */\n      dup1\n        /* \"#utility.yul\":492:504   */\n      revert\n        /* \"#utility.yul\":454:506   */\n    tag_59:\n        /* \"#utility.yul\":525:554   */\n      tag_60\n        /* \"#utility.yul\":544:553   */\n      dup3\n        /* \"#utility.yul\":525:554   */\n      tag_52\n      jump\t// in\n    tag_60:\n        /* \"#utility.yul\":515:554   */\n      swap4\n        /* \"#utility.yul\":374:560   */\n      swap3\n      pop\n      pop\n      pop\n      jump\t// out\n        /* \"#utility.yul\":565:819   */\n    tag_20:\n        /* \"#utility.yul\":633:639   */\n      0x00\n        /* \"#utility.yul\":641:647   */\n      dup1\n        /* \"#utility.yul\":694:696   */\n      0x40\n        /* \"#utility.yul\":682:691   */\n      dup4\n        /* \"#utility.yul\":673:680   */\n      dup6\n        /* \"#utility.yul\":669:692   */\n      sub\n        /* \"#utility.yul\":665:697   */\n      slt\n        /* \"#utility.yul\":662:714   */\n      iszero\n      tag_62\n      jumpi\n        /* \"#utility.yul\":710:711   */\n      0x00\n        /* \"#utility.yul\":707:708   */\n      dup1\n        /* \"#utility.yul\":700:712   */\n      revert\n        /* \"#utility.yul\":662:714   */\n    tag_62:\n        /* \"#utility.yul\":733:762   */\n      tag_63\n        /* \"#utility.yul\":752:761   */\n      dup4\n        /* \"#utility.yul\":733:762   */\n      tag_52\n      jump\t// in\n    tag_63:\n        /* \"#utility.yul\":723:762   */\n      swap5\n        /* \"#utility.yul\":809:811   */\n      0x20\n        /* \"#utility.yul\":794:812   */\n      swap4\n      swap1\n      swap4\n      add\n        /* \"#utility.yul\":781:813   */\n      calldataload\n      swap4\n      pop\n      pop\n      pop\n        /* \"#utility.yul\":565:819   */\n      jump\t// out\n        /* \"#utility.yul\":824:1372   */\n    tag_25:\n        /* \"#utility.yul\":936:940   */\n      0x00\n        /* \"#utility.yul\":965:967   */\n      0x20\n        /* \"#utility.yul\":994:996   */\n      dup1\n        /* \"#utility.yul\":983:992   */\n      dup4\n        /* \"#utility.yul\":976:997   */\n      mstore\n        /* \"#utility.yul\":1026:1032   */\n      dup4\n        /* \"#utility.yul\":1020:1033   */\n      mload\n        /* \"#utility.yul\":1069:1075   */\n      dup1\n        /* \"#utility.yul\":1064:1066   */\n      dup3\n        /* \"#utility.yul\":1053:1062   */\n      dup6\n        /* \"#utility.yul\":1049:1067   */\n      add\n        /* \"#utility.yul\":1042:1076   */\n      mstore\n        /* \"#utility.yul\":1094:1095   */\n      0x00\n        /* \"#utility.yul\":1104:1244   */\n    tag_65:\n        /* \"#utility.yul\":1118:1124   */\n      dup2\n        /* \"#utility.yul\":1115:1116   */\n      dup2\n        /* \"#utility.yul\":1112:1125   */\n      lt\n        /* \"#utility.yul\":1104:1244   */\n      iszero\n      tag_67\n      jumpi\n        /* \"#utility.yul\":1213:1227   */\n      dup6\n      dup2\n      add\n        /* \"#utility.yul\":1209:1232   */\n      dup4\n      add\n        /* \"#utility.yul\":1203:1233   */\n      mload\n        /* \"#utility.yul\":1179:1196   */\n      dup6\n      dup3\n      add\n        /* \"#utility.yul\":1198:1200   */\n      0x40\n        /* \"#utility.yul\":1175:1201   */\n      add\n        /* \"#utility.yul\":1168:1234   */\n      mstore\n        /* \"#utility.yul\":1133:1143   */\n      dup3\n      add\n        /* \"#utility.yul\":1104:1244   */\n      jump(tag_65)\n    tag_67:\n        /* \"#utility.yul\":1108:1111   */\n      pop\n        /* \"#utility.yul\":1293:1294   */\n      0x00\n        /* \"#utility.yul\":1288:1290   */\n      0x40\n        /* \"#utility.yul\":1279:1285   */\n      dup3\n        /* \"#utility.yul\":1268:1277   */\n      dup7\n        /* \"#utility.yul\":1264:1286   */\n      add\n        /* \"#utility.yul\":1260:1291   */\n      add\n        /* \"#utility.yul\":1253:1295   */\n      mstore\n        /* \"#utility.yul\":1363:1365   */\n      0x40\n        /* \"#utility.yul\":1356:1358   */\n      0x1f\n        /* \"#utility.yul\":1352:1359   */\n      not\n        /* \"#utility.yul\":1347:1349   */\n      0x1f\n        /* \"#utility.yul\":1339:1345   */\n      dup4\n        /* \"#utility.yul\":1335:1350   */\n      add\n        /* \"#utility.yul\":1331:1360   */\n      and\n        /* \"#utility.yul\":1320:1329   */\n      dup6\n        /* \"#utility.yul\":1316:1361   */\n      add\n        /* \"#utility.yul\":1312:1366   */\n      add\n        /* \"#utility.yul\":1304:1366   */\n      swap3\n      pop\n      pop\n      pop\n        /* \"#utility.yul\":824:1372   */\n      swap3\n      swap2\n      pop\n      pop\n      jump\t// out\n        /* \"#utility.yul\":1377:1504   */\n    tag_53:\n        /* \"#utility.yul\":1438:1448   */\n      0x4e487b71\n        /* \"#utility.yul\":1433:1436   */\n      0xe0\n        /* \"#utility.yul\":1429:1449   */\n      shl\n        /* \"#utility.yul\":1426:1427   */\n      0x00\n        /* \"#utility.yul\":1419:1450   */\n      mstore\n        /* \"#utility.yul\":1469:1473   */\n      0x11\n        /* \"#utility.yul\":1466:1467   */\n      0x04\n        /* \"#utility.yul\":1459:1474   */\n      mstore\n        /* \"#utility.yul\":1493:1497   */\n      0x24\n        /* \"#utility.yul\":1490:1491   */\n      0x00\n        /* \"#utility.yul\":1483:1498   */\n      revert\n        /* \"#utility.yul\":1509:1634   */\n    tag_34:\n        /* \"#utility.yul\":1574:1583   */\n      dup1\n      dup3\n      add\n        /* \"#utility.yul\":1595:1605   */\n      dup1\n      dup3\n      gt\n        /* \"#utility.yul\":1592:1628   */\n      iszero\n      tag_71\n      jumpi\n        /* \"#utility.yul\":1608:1626   */\n      tag_71\n      tag_53\n      jump\t// in\n    tag_71:\n        /* \"#utility.yul\":1509:1634   */\n      swap3\n      swap2\n      pop\n      pop\n      jump\t// out\n        /* \"#utility.yul\":1639:2019   */\n    tag_37:\n        /* \"#utility.yul\":1718:1719   */\n      0x01\n        /* \"#utility.yul\":1714:1726   */\n      dup2\n      dup2\n      shr\n      swap1\n        /* \"#utility.yul\":1761:1773   */\n      dup3\n      and\n      dup1\n        /* \"#utility.yul\":1782:1843   */\n      tag_73\n      jumpi\n        /* \"#utility.yul\":1836:1840   */\n      0x7f\n        /* \"#utility.yul\":1828:1834   */\n      dup3\n        /* \"#utility.yul\":1824:1841   */\n      and\n        /* \"#utility.yul\":1814:1841   */\n      swap2\n      pop\n        /* \"#utility.yul\":1782:1843   */\n    tag_73:\n        /* \"#utility.yul\":1889:1891   */\n      0x20\n        /* \"#utility.yul\":1881:1887   */\n      dup3\n        /* \"#utility.yul\":1878:1892   */\n      lt\n        /* \"#utility.yul\":1858:1876   */\n      dup2\n        /* \"#utility.yul\":1855:1893   */\n      sub\n        /* \"#utility.yul\":1852:2013   */\n      tag_74\n      jumpi\n        /* \"#utility.yul\":1935:1945   */\n      0x4e487b71\n        /* \"#utility.yul\":1930:1933   */\n      0xe0\n        /* \"#utility.yul\":1926:1946   */\n      shl\n        /* \"#utility.yul\":1923:1924   */\n      0x00\n        /* \"#utility.yul\":1916:1947   */\n      mstore\n        /* \"#utility.yul\":1970:1974   */\n      0x22\n        /* \"#utility.yul\":1967:1968   */\n      0x04\n        /* \"#utility.yul\":1960:1975   */\n      mstore\n        /* \"#utility.yul\":1998:2002   */\n      0x24\n        /* \"#utility.yul\":1995:1996   */\n      0x00\n        /* \"#utility.yul\":1988:2003   */\n      revert\n        /* \"#utility.yul\":1852:2013   */\n    tag_74:\n      pop\n        /* \"#utility.yul\":1639:2019   */\n      swap2\n      swap1\n      pop\n      jump\t// out\n        /* \"#utility.yul\":2024:2152   */\n    tag_50:\n        /* \"#utility.yul\":2091:2100   */\n      dup2\n      dup2\n      sub\n        /* \"#utility.yul\":2112:2123   */\n      dup2\n      dup2\n      gt\n        /* \"#utility.yul\":2109:2146   */\n      iszero\n      tag_71\n      jumpi\n        /* \"#utility.yul\":2126:2144   */\n      tag_71\n      tag_53\n      jump\t// in\n\n    auxdata: 0xa26469706673582212206a1d7c43701a73b05485d7834e4adccf6fd6735e27a383a93c907a7afada181364736f6c63430008120033\n}\n",
				"bytecode": {
					"linkReferences": {},
					"object": "60c0604052600460809081526329a42aa160e11b60a0526000906100239082610102565b5060408051808201909152600381526229aaa160e91b602082015260019061004b9082610102565b50600060025534801561005d57600080fd5b506101c1565b634e487b7160e01b600052604160045260246000fd5b600181811c9082168061008d57607f821691505b6020821081036100ad57634e487b7160e01b600052602260045260246000fd5b50919050565b601f8211156100fd57600081815260208120601f850160051c810160208610156100da5750805b601f850160051c820191505b818110156100f9578281556001016100e6565b5050505b505050565b81516001600160401b0381111561011b5761011b610063565b61012f816101298454610079565b846100b3565b602080601f831160018114610164576000841561014c5750858301515b600019600386901b1c1916600185901b1785556100f9565b600085815260208120601f198616915b8281101561019357888601518255948401946001909101908401610174565b50858210156101b15787850151600019600388901b60f8161c191681555b5050505050600190811b01905550565b610395806101d06000396000f3fe608060405234801561001057600080fd5b50600436106100625760003560e01c806318160ddd1461006757806327e235e31461008357806340c10f19146100a35780636c02a931146100b85780637a8ff07d146100cd5780639dc29fac146100d5575b600080fd5b61007060025481565b6040519081526020015b60405180910390f35b610070610091366004610249565b60036020526000908152604090205481565b6100b66100b136600461026b565b6100e8565b005b6100c0610130565b60405161007a9190610295565b6100c06101be565b6100b66100e336600461026b565b6101cb565b80600260008282546100fa91906102f9565b90915550506001600160a01b038216600090815260036020526040812080548392906101279084906102f9565b90915550505050565b6000805461013d90610312565b80601f016020809104026020016040519081016040528092919081815260200182805461016990610312565b80156101b65780601f1061018b576101008083540402835291602001916101b6565b820191906000526020600020905b81548152906001019060200180831161019957829003601f168201915b505050505081565b6001805461013d90610312565b6001600160a01b03821660009081526003602052604090205481116102295780600260008282546101fc919061034c565b90915550506001600160a01b0382166000908152600360205260408120805483929061012790849061034c565b5050565b80356001600160a01b038116811461024457600080fd5b919050565b60006020828403121561025b57600080fd5b6102648261022d565b9392505050565b6000806040838503121561027e57600080fd5b6102878361022d565b946020939093013593505050565b600060208083528351808285015260005b818110156102c2578581018301518582016040015282016102a6565b506000604082860101526040601f19601f8301168501019250505092915050565b634e487b7160e01b600052601160045260246000fd5b8082018082111561030c5761030c6102e3565b92915050565b600181811c9082168061032657607f821691505b60208210810361034657634e487b7160e01b600052602260045260246000fd5b50919050565b8181038181111561030c5761030c6102e356fea26469706673582212206a1d7c43701a73b05485d7834e4adccf6fd6735e27a383a93c907a7afada181364736f6c63430008120033",
					"opcodes": "PUSH1 0xC0 PUSH1 0x40 MSTORE PUSH1 0x4 PUSH1 0x80 SWAP1 DUP2 MSTORE PUSH4 0x29A42AA1 PUSH1 0xE1 SHL PUSH1 0xA0 MSTORE PUSH1 0x0 SWAP1 PUSH2 0x23 SWAP1 DUP3 PUSH2 0x102 JUMP JUMPDEST POP PUSH1 0x40 DUP1 MLOAD DUP1 DUP3 ADD SWAP1 SWAP2 MSTORE PUSH1 0x3 DUP2 MSTORE PUSH3 0x29AAA1 PUSH1 0xE9 SHL PUSH1 0x20 DUP3 ADD MSTORE PUSH1 0x1 SWAP1 PUSH2 0x4B SWAP1 DUP3 PUSH2 0x102 JUMP JUMPDEST POP PUSH1 0x0 PUSH1 0x2 SSTORE CALLVALUE DUP1 ISZERO PUSH2 0x5D JUMPI PUSH1 0x0 DUP1 REVERT JUMPDEST POP PUSH2 0x1C1 JUMP JUMPDEST PUSH4 0x4E487B71 PUSH1 0xE0 SHL PUSH1 0x0 MSTORE PUSH1 0x41 PUSH1 0x4 MSTORE PUSH1 0x24 PUSH1 0x0 REVERT JUMPDEST PUSH1 0x1 DUP2 DUP2 SHR SWAP1 DUP3 AND DUP1 PUSH2 0x8D JUMPI PUSH1 0x7F DUP3 AND SWAP2 POP JUMPDEST PUSH1 0x20 DUP3 LT DUP2 SUB PUSH2 0xAD JUMPI PUSH4 0x4E487B71 PUSH1 0xE0 SHL PUSH1 0x0 MSTORE PUSH1 0x22 PUSH1 0x4 MSTORE PUSH1 0x24 PUSH1 0x0 REVERT JUMPDEST POP SWAP2 SWAP1 POP JUMP JUMPDEST PUSH1 0x1F DUP3 GT ISZERO PUSH2 0xFD JUMPI PUSH1 0x0 DUP2 DUP2 MSTORE PUSH1 0x20 DUP2 KECCAK256 PUSH1 0x1F DUP6 ADD PUSH1 0x5 SHR DUP2 ADD PUSH1 0x20 DUP7 LT ISZERO PUSH2 0xDA JUMPI POP DUP1 JUMPDEST PUSH1 0x1F DUP6 ADD PUSH1 0x5 SHR DUP3 ADD SWAP2 POP JUMPDEST DUP2 DUP2 LT ISZERO PUSH2 0xF9 JUMPI DUP3 DUP2 SSTORE PUSH1 0x1 ADD PUSH2 0xE6 JUMP JUMPDEST POP POP POP JUMPDEST POP POP POP JUMP JUMPDEST DUP2 MLOAD PUSH1 0x1 PUSH1 0x1 PUSH1 0x40 SHL SUB DUP2 GT ISZERO PUSH2 0x11B JUMPI PUSH2 0x11B PUSH2 0x63 JUMP JUMPDEST PUSH2 0x12F DUP2 PUSH2 0x129 DUP5 SLOAD PUSH2 0x79 JUMP JUMPDEST DUP5 PUSH2 0xB3 JUMP JUMPDEST PUSH1 0x20 DUP1 PUSH1 0x1F DUP4 GT PUSH1 0x1 DUP2 EQ PUSH2 0x164 JUMPI PUSH1 0x0 DUP5 ISZERO PUSH2 0x14C JUMPI POP DUP6 DUP4 ADD MLOAD JUMPDEST PUSH1 0x0 NOT PUSH1 0x3 DUP7 SWAP1 SHL SHR NOT AND PUSH1 0x1 DUP6 SWAP1 SHL OR DUP6 SSTORE PUSH2 0xF9 JUMP JUMPDEST PUSH1 0x0 DUP6 DUP2 MSTORE PUSH1 0x20 DUP2 KECCAK256 PUSH1 0x1F NOT DUP7 AND SWAP2 JUMPDEST DUP3 DUP2 LT ISZERO PUSH2 0x193 JUMPI DUP9 DUP7 ADD MLOAD DUP3 SSTORE SWAP5 DUP5 ADD SWAP5 PUSH1 0x1 SWAP1 SWAP2 ADD SWAP1 DUP5 ADD PUSH2 0x174 JUMP JUMPDEST POP DUP6 DUP3 LT ISZERO PUSH2 0x1B1 JUMPI DUP8 DUP6 ADD MLOAD PUSH1 0x0 NOT PUSH1 0x3 DUP9 SWAP1 SHL PUSH1 0xF8 AND SHR NOT AND DUP2 SSTORE JUMPDEST POP POP POP POP POP PUSH1 0x1 SWAP1 DUP2 SHL ADD SWAP1 SSTORE POP JUMP JUMPDEST PUSH2 0x395 DUP1 PUSH2 0x1D0 PUSH1 0x0 CODECOPY PUSH1 0x0 RETURN INVALID PUSH1 0x80 PUSH1 0x40 MSTORE CALLVALUE DUP1 ISZERO PUSH2 0x10 JUMPI PUSH1 0x0 DUP1 REVERT JUMPDEST POP PUSH1 0x4 CALLDATASIZE LT PUSH2 0x62 JUMPI PUSH1 0x0 CALLDATALOAD PUSH1 0xE0 SHR DUP1 PUSH4 0x18160DDD EQ PUSH2 0x67 JUMPI DUP1 PUSH4 0x27E235E3 EQ PUSH2 0x83 JUMPI DUP1 PUSH4 0x40C10F19 EQ PUSH2 0xA3 JUMPI DUP1 PUSH4 0x6C02A931 EQ PUSH2 0xB8 JUMPI DUP1 PUSH4 0x7A8FF07D EQ PUSH2 0xCD JUMPI DUP1 PUSH4 0x9DC29FAC EQ PUSH2 0xD5 JUMPI JUMPDEST PUSH1 0x0 DUP1 REVERT JUMPDEST PUSH2 0x70 PUSH1 0x2 SLOAD DUP2 JUMP JUMPDEST PUSH1 0x40 MLOAD SWAP1 DUP2 MSTORE PUSH1 0x20 ADD JUMPDEST PUSH1 0x40 MLOAD DUP1 SWAP2 SUB SWAP1 RETURN JUMPDEST PUSH2 0x70 PUSH2 0x91 CALLDATASIZE PUSH1 0x4 PUSH2 0x249 JUMP JUMPDEST PUSH1 0x3 PUSH1 0x20 MSTORE PUSH1 0x0 SWAP1 DUP2 MSTORE PUSH1 0x40 SWAP1 KECCAK256 SLOAD DUP2 JUMP JUMPDEST PUSH2 0xB6 PUSH2 0xB1 CALLDATASIZE PUSH1 0x4 PUSH2 0x26B JUMP JUMPDEST PUSH2 0xE8 JUMP JUMPDEST STOP JUMPDEST PUSH2 0xC0 PUSH2 0x130 JUMP JUMPDEST PUSH1 0x40 MLOAD PUSH2 0x7A SWAP2 SWAP1 PUSH2 0x295 JUMP JUMPDEST PUSH2 0xC0 PUSH2 0x1BE JUMP JUMPDEST PUSH2 0xB6 PUSH2 0xE3 CALLDATASIZE PUSH1 0x4 PUSH2 0x26B JUMP JUMPDEST PUSH2 0x1CB JUMP JUMPDEST DUP1 PUSH1 0x2 PUSH1 0x0 DUP3 DUP3 SLOAD PUSH2 0xFA SWAP2 SWAP1 PUSH2 0x2F9 JUMP JUMPDEST SWAP1 SWAP2 SSTORE POP POP PUSH1 0x1 PUSH1 0x1 PUSH1 0xA0 SHL SUB DUP3 AND PUSH1 0x0 SWAP1 DUP2 MSTORE PUSH1 0x3 PUSH1 0x20 MSTORE PUSH1 0x40 DUP2 KECCAK256 DUP1 SLOAD DUP4 SWAP3 SWAP1 PUSH2 0x127 SWAP1 DUP5 SWAP1 PUSH2 0x2F9 JUMP JUMPDEST SWAP1 SWAP2 SSTORE POP POP POP POP JUMP JUMPDEST PUSH1 0x0 DUP1 SLOAD PUSH2 0x13D SWAP1 PUSH2 0x312 JUMP JUMPDEST DUP1 PUSH1 0x1F ADD PUSH1 0x20 DUP1 SWAP2 DIV MUL PUSH1 0x20 ADD PUSH1 0x40 MLOAD SWAP1 DUP2 ADD PUSH1 0x40 MSTORE DUP1 SWAP3 SWAP2 SWAP1 DUP2 DUP2 MSTORE PUSH1 0x20 ADD DUP3 DUP1 SLOAD PUSH2 0x169 SWAP1 PUSH2 0x312 JUMP JUMPDEST DUP1 ISZERO PUSH2 0x1B6 JUMPI DUP1 PUSH1 0x1F LT PUSH2 0x18B JUMPI PUSH2 0x100 DUP1 DUP4 SLOAD DIV MUL DUP4 MSTORE SWAP2 PUSH1 0x20 ADD SWAP2 PUSH2 0x1B6 JUMP JUMPDEST DUP3 ADD SWAP2 SWAP1 PUSH1 0x0 MSTORE PUSH1 0x20 PUSH1 0x0 KECCAK256 SWAP1 JUMPDEST DUP2 SLOAD DUP2 MSTORE SWAP1 PUSH1 0x1 ADD SWAP1 PUSH1 0x20 ADD DUP1 DUP4 GT PUSH2 0x199 JUMPI DUP3 SWAP1 SUB PUSH1 0x1F AND DUP3 ADD SWAP2 JUMPDEST POP POP POP POP POP DUP2 JUMP JUMPDEST PUSH1 0x1 DUP1 SLOAD PUSH2 0x13D SWAP1 PUSH2 0x312 JUMP JUMPDEST PUSH1 0x1 PUSH1 0x1 PUSH1 0xA0 SHL SUB DUP3 AND PUSH1 0x0 SWAP1 DUP2 MSTORE PUSH1 0x3 PUSH1 0x20 MSTORE PUSH1 0x40 SWAP1 KECCAK256 SLOAD DUP2 GT PUSH2 0x229 JUMPI DUP1 PUSH1 0x2 PUSH1 0x0 DUP3 DUP3 SLOAD PUSH2 0x1FC SWAP2 SWAP1 PUSH2 0x34C JUMP JUMPDEST SWAP1 SWAP2 SSTORE POP POP PUSH1 0x1 PUSH1 0x1 PUSH1 0xA0 SHL SUB DUP3 AND PUSH1 0x0 SWAP1 DUP2 MSTORE PUSH1 0x3 PUSH1 0x20 MSTORE PUSH1 0x40 DUP2 KECCAK256 DUP1 SLOAD DUP4 SWAP3 SWAP1 PUSH2 0x127 SWAP1 DUP5 SWAP1 PUSH2 0x34C JUMP JUMPDEST POP POP JUMP JUMPDEST DUP1 CALLDATALOAD PUSH1 0x1 PUSH1 0x1 PUSH1 0xA0 SHL SUB DUP2 AND DUP2 EQ PUSH2 0x244 JUMPI PUSH1 0x0 DUP1 REVERT JUMPDEST SWAP2 SWAP1 POP JUMP JUMPDEST PUSH1 0x0 PUSH1 0x20 DUP3 DUP5 SUB SLT ISZERO PUSH2 0x25B JUMPI PUSH1 0x0 DUP1 REVERT JUMPDEST PUSH2 0x264 DUP3 PUSH2 0x22D JUMP JUMPDEST SWAP4 SWAP3 POP POP POP JUMP JUMPDEST PUSH1 0x0 DUP1 PUSH1 0x40 DUP4 DUP6 SUB SLT ISZERO PUSH2 0x27E JUMPI PUSH1 0x0 DUP1 REVERT JUMPDEST PUSH2 0x287 DUP4 PUSH2 0x22D JUMP JUMPDEST SWAP5 PUSH1 0x20 SWAP4 SWAP1 SWAP4 ADD CALLDATALOAD SWAP4 POP POP POP JUMP JUMPDEST PUSH1 0x0 PUSH1 0x20 DUP1 DUP4 MSTORE DUP4 MLOAD DUP1 DUP3 DUP6 ADD MSTORE PUSH1 0x0 JUMPDEST DUP2 DUP2 LT ISZERO PUSH2 0x2C2 JUMPI DUP6 DUP2 ADD DUP4 ADD MLOAD DUP6 DUP3 ADD PUSH1 0x40 ADD MSTORE DUP3 ADD PUSH2 0x2A6 JUMP JUMPDEST POP PUSH1 0x0 PUSH1 0x40 DUP3 DUP7 ADD ADD MSTORE PUSH1 0x40 PUSH1 0x1F NOT PUSH1 0x1F DUP4 ADD AND DUP6 ADD ADD SWAP3 POP POP POP SWAP3 SWAP2 POP POP JUMP JUMPDEST PUSH4 0x4E487B71 PUSH1 0xE0 SHL PUSH1 0x0 MSTORE PUSH1 0x11 PUSH1 0x4 MSTORE PUSH1 0x24 PUSH1 0x0 REVERT JUMPDEST DUP1 DUP3 ADD DUP1 DUP3 GT ISZERO PUSH2 0x30C JUMPI PUSH2 0x30C PUSH2 0x2E3 JUMP JUMPDEST SWAP3 SWAP2 POP POP JUMP JUMPDEST PUSH1 0x1 DUP2 DUP2 SHR SWAP1 DUP3 AND DUP1 PUSH2 0x326 JUMPI PUSH1 0x7F DUP3 AND SWAP2 POP JUMPDEST PUSH1 0x20 DUP3 LT DUP2 SUB PUSH2 0x346 JUMPI PUSH4 0x4E487B71 PUSH1 0xE0 SHL PUSH1 0x0 MSTORE PUSH1 0x22 PUSH1 0x4 MSTORE PUSH1 0x24 PUSH1 0x0 REVERT JUMPDEST POP SWAP2 SWAP1 POP JUMP JUMPDEST DUP2 DUP2 SUB DUP2 DUP2 GT ISZERO PUSH2 0x30C JUMPI PUSH2 0x30C PUSH2 0x2E3 JUMP INVALID LOG2 PUSH5 0x6970667358 0x22 SLT KECCAK256 PUSH11 0x1D7C43701A73B05485D783 0x4E 0x4A 0xDC 0xCF PUSH16 0xD6735E27A383A93C907A7AFADA181364 PUSH20 0x6F6C634300081200330000000000000000000000 "
				},
				"gasEstimates": {
					"creation": {
						"codeDepositCost": "183400",
						"executionCost": "infinite",
						"totalCost": "infinite"
					},
					"external": {
						"balances(address)": "2508",
						"burn(address,uint256)": "infinite",
						"mint(address,uint256)": "infinite",
						"tokenAbbrv()": "infinite",
						"tokenName()": "infinite",
						"totalSupply()": "2262"
					}
				},
				"methodIdentifiers": {
					"balances(address)": "27e235e3",
					"burn(address,uint256)": "9dc29fac",
					"mint(address,uint256)": "40c10f19",
					"tokenAbbrv()": "7a8ff07d",
					"tokenName()": "6c02a931",
					"totalSupply()": "18160ddd"
				}
			},
			"storageLayout": {
				"storage": [
					{
						"astId": 4,
						"contract": "MyToken,sol.sol:MyToken",
						"label": "tokenName",
						"offset": 0,
						"slot": "0",
						"type": "t_string_storage"
					},
					{
						"astId": 7,
						"contract": "MyToken,sol.sol:MyToken",
						"label": "tokenAbbrv",
						"offset": 0,
						"slot": "1",
						"type": "t_string_storage"
					},
					{
						"astId": 10,
						"contract": "MyToken,sol.sol:MyToken",
						"label": "totalSupply",
						"offset": 0,
						"slot": "2",
						"type": "t_uint256"
					},
					{
						"astId": 14,
						"contract": "MyToken,sol.sol:MyToken",
						"label": "balances",
						"offset": 0,
						"slot": "3",
						"type": "t_mapping(t_address,t_uint256)"
					}
				],
				"types": {
					"t_address": {
						"encoding": "inplace",
						"label": "address",
						"numberOfBytes": "20"
					},
					"t_mapping(t_address,t_uint256)": {
						"encoding": "mapping",
						"key": "t_address",
						"label": "mapping(address => uint256)",
						"numberOfBytes": "32",
						"value": "t_uint256"
					},
					"t_string_storage": {
						"encoding": "bytes",
						"label": "string",
						"numberOfBytes": "32"
					},
					"t_uint256": {
						"encoding": "inplace",
						"label": "uint256",
						"numberOfBytes": "32"
					}
				}
			},
			"userdoc": {
				"kind": "user",
				"methods": {},
				"version": 1
			}
		}
	}
}